[OUT] [20091016-17:33:45.729] [UniqueID=IAT_MU1_USR4_F520091016-16:33:45.729] 8=FIX.4.4|9=166|35=D|49=IAT_MU1_USR4_F|56=TTS|34=5|52=20091016-16:33:45.729|11=PERFSCRIPT_prodMix(fix44)_ORD07 _3|18=2|55=BEId|54=1|60=20091016-16:33:45.729|38=9446|40=2|44=203|59=0|10=128|/*****/
[IN ] [20091016-17:33:45.729] [UniqueID=TTS520091016-16:33:45.642] 8=FIX.4.4|9=257|35=8|49=TTS|56=IAT_MU1_USR4_F|34=5|52=20091016-16:33:45.642|6=0.0|11=PERFSCRIPT_prodMix(fix44)_ORD07 _3|14=0|15=EUR|17=0001245e329ca9-31d9|18=2|31=0.0|32=0|37=O1G0V5SY3T-0|38=9446|39=0|40=2|44=203|54=1|55=BEId|59=0|60=20091016-16:33:45|150=0|151=9446|528=A|10=153|/*****/
[OUT] [20091016-17:33:45.745] [UniqueID=IAT_MU1_USR4_F620091016-16:33:45.745] 8=FIX.4.4|9=166|35=D|49=IAT_MU1_USR4_F|56=TTS|34=6|52=20091016-16:33:45.745|11=PERFSCRIPT_prodMix(fix44)_ORD08 _4|18=2|55=BEId|54=2|60=20091016-16:33:45.745|38=7437|40=2|44=198|59=0|10=139|/*****/
[IN ] [20091016-17:33:45.761] [UniqueID=TTS620091016-16:33:45.665] 8=FIX.4.4|9=257|35=8|49=TTS|56=IAT_MU1_USR4_F|34=6|52=20091016-16:33:45.665|6=0.0|11=PERFSCRIPT_prodMix(fix44)_ORD08 _4|14=0|15=EUR|17=0001245e329cbe-3207|18=2|31=0.0|32=0|37=O1G0V5SY4E-0|38=7437|39=0|40=2|44=198|54=2|55=BEId|59=0|60=20091016-16:33:45|150=0|151=7437|528=A|10=149|/*****/
[IN ] [20091016-17:33:45.761] [UniqueID=TTS720091016-16:33:45.665] 8=FIX.4.4|9=261|35=8|49=TTS|56=IAT_MU1_USR4_F|34=7|52=20091016-16:33:45.665|6=0.0|11=PERFSCRIPT_prodMix(fix44)_ORD08 _4|14=7437|15=EUR|17=T1G0V5SY4E-2-A|18=2|31=203|32=7437|37=O1G0V5SY4E-0|38=7437|39=2|40=2|44=198|54=2|55=BEId|59=0|60=20091016-16:33:45|150=F|151=0|528=A|851=2|10=090|/*****/
[IN ] [20091016-17:33:45.761] [UniqueID=TTS820091016-16:33:45.666] 8=FIX.4.4|9=264|35=8|49=TTS|56=IAT_MU1_USR4_F|34=8|52=20091016-16:33:45.666|6=0.0|11=PERFSCRIPT_prodMix(fix44)_ORD07 _3|14=7437|15=EUR|17=T1G0V5SY4E-2-B|18=2|31=203|32=7437|37=O1G0V5SY3T-0|38=9446|39=1|40=2|44=203|54=1|55=BEId|59=0|60=20091016-16:33:45|150=F|151=2009|528=A|851=1|10=249|/*****/
[OUT] [20091016-17:33:45.761] [UniqueID=IAT_MU1_USR4_F720091016-16:33:45.761] 8=FIX.4.4|9=165|35=D|49=IAT_MU1_USR4_F|56=TTS|34=7|52=20091016-16:33:45.761|11=PERFSCRIPT_prodMix(fix44)_ORD09_R|18=2|55=BEId|54=1|60=20091016-16:33:45.761|38=8888|40=2|44=180|59=0|10=135|/*****/
[IN ] [20091016-17:33:45.776] [UniqueID=TTS920091016-16:33:45.686] 8=FIX.4.4|9=256|35=8|49=TTS|56=IAT_MU1_USR4_F|34=9|52=20091016-16:33:45.686|6=0.0|11=PERFSCRIPT_prodMix(fix44)_ORD09_R|14=0|15=EUR|17=0001245e329cd5-327a|18=2|31=0.0|32=0|37=O1G0V5SY51-0|38=8888|39=0|40=2|44=180|54=1|55=BEId|59=0|60=20091016-16:33:45|150=0|151=8888|528=A|10=149|/*****/
[OUT] [20091016-17:33:45.792] [UniqueID=IAT_MU1_USR4_F820091016-16:33:45.792] 8=FIX.4.4|9=165|35=D|49=IAT_MU1_USR4_F|56=TTS|34=8|52=20091016-16:33:45.792|11=PERFSCRIPT_prodMix(fix44)_ORD10_R|18=2|55=BEId|54=2|60=20091016-16:33:45.792|38=8888|40=2|44=220|59=0|10=132|/*****/
[IN ] [20091016-17:33:45.792] [UniqueID=TTS1020091016-16:33:45.706] 8=FIX.4.4|9=257|35=8|49=TTS|56=IAT_MU1_USR4_F|34=10|52=20091016-16:33:45.706|6=0.0|11=PERFSCRIPT_prodMix(fix44)_ORD10_R|14=0|15=EUR|17=0001245e329ce8-32ec|18=2|31=0.0|32=0|37=O1G0V5SY5K-0|38=8888|39=0|40=2|44=220|54=2|55=BEId|59=0|60=20091016-16:33:45|150=0|151=8888|528=A|10=249|/*****/
